:0400000014EF0AF0FF
:07060000004F5645520000B7
:10060800050E0E6E0F0E0D6EF10EE82EFED70D2E96
:10061800FCD70E2EFAD700F0010E3724376E000EE5
:100628003820386E09040A10D8A41DEF03F01FEF14
:1006380003F035EF03F0060E056E010E39EC09F0F4
:10064800200E57EC0AF0110E0E6E3C0E0D6ECB0EFE
:10065800E82EFED70D2EFCD70E2EFAD700F045EF68
:1006680003F0060E056E010E39EC09F00A0EC9EC0E
:100678000AF00D6E0D50026E036ADDEC0AF057ECBD
:100688000AF0020E09180A10D8A44DEF03F04FEF34
:1006980003F065EF03F0080E056E010E39EC09F062
:1006A800200E57EC0AF0110E0E6E3C0E0D6ECB0E9E
:1006B800E82EFED70D2EFCD70E2EFAD700F075EFD8
:1006C80003F0080E056E010E39EC09F00B0EC9ECAB
:1006D8000AF00D6E0D50026E036ADDEC0AF057EC5D
:1006E8000AF0030E09180A10D8A47DEF03F07FEF73
:1006F80003F095EF03F00A0E056E010E39EC09F0D0
:10070800200E57EC0AF0110E0E6E3C0E0D6ECB0E3D
:10071800E82EFED70D2EFCD70E2EFAD700F0A5EF47
:1007280003F00A0E056E010E39EC09F00C0EC9EC47
:100738000AF00D6E0D50026E036ADDEC0AF057ECFC
:100748000AF0040E09180A10D8A4ADEF03F0AFEFB1
:1007580003F0C5EF03F00C0E056E010E39EC09F03D
:10076800200E57EC0AF0110E0E6E3C0E0D6ECB0EDD
:10077800E82EFED70D2EFCD70E2EFAD700F0D5EFB7
:1007880003F00C0E056E010E39EC09F00D0EC9ECE4
:100798000AF00D6E0D50026E036ADDEC0AF057EC9C
:1007A8000AF0899E37C001F038C002F0000E046ECE
:1007B8000C0E036E6EEC09F001500210D8B4E7EF8E
:1007C80003F0E9EF03F052EF04F037C001F038C04E
:1007D80002F0000E046E060E036E6EEC09F0015076
:1007E8000210D8A4FAEF03F0FCEF03F070EF04F066
:1007F80052EF04F0060E056E010E39EC09F00A0EF0
:10080800C9EC0AF00D6E0D50026E036ADDEC0AF0B9
:1008180057EC0AF0110E0E6E3C0E0D6ECB0EE82E44
:10082800FED70D2EFCD70E2EFAD700F070EF04F08D
:10083800080E056E010E39EC09F00B0EC9EC0AF032
:100848000D6E0D50026E036ADDEC0AF057EC0AF0EB
:100858000EEF04F00A0E056E010E39EC09F00C0ECD
:10086800C9EC0AF00D6E0D50026E036ADDEC0AF059
:1008780057EC0AF00EEF04F00C0E056E010E39EC81
:1008880009F00D0EC9EC0AF00D6E0D50026E036AE8
:10089800DDEC0AF057EC0AF00EEF04F009C00DF099
:1008A8000AC00EF00E50000AD8B45DEF04F070EFE5
:1008B80004F00D50010AD8B4FEEF03F0030AD8B4CF
:1008C8001CEF04F0010AD8B42EEF04F0070AD8B4DC
:1008D80040EF04F070EF04F00B500C10D8B477EF31
:1008E80004F079EF04F020EF05F037B07EEF04F064
:1008F80080EF04F020EF05F002EF05F00A0EC9ECD6
:100908000AF00D6E010E0D240F6E106A000E1022F3
:10091800105009E10A0E0F5CD8A095EF04F097EF8C
:1009280004F09BEF04F0000E106E000E0F6E0FC067
:1009380001F00A0E2FEC0AF020EF05F00B0EC9ECBF
:100948000AF00D6E010E0D24116E126A000E1222AD
:10095800125009E10A0E115CD8A0B5EF04F0B7EF08
:1009680004F0BBEF04F0000E126E000E116E11C001
:1009780001F00B0E2FEC0AF020EF05F00C0EC9EC7D
:100988000AF00D6E010E0D24136E146A000E142267
:10099800145009E1060E135CD8A0D5EF04F0D7EF88
:1009A80004F0DBEF04F0000E146E000E136E13C09B
:1009B80001F00C0E2FEC0AF020EF05F00D0EC9EC3B
:1009C8000AF00D6E010E0D24156E166A000E162221
:1009D800165009E10A0E155CD8A0F5EF04F0F7EF00
:1009E80004F0FBEF04F0000E166E000E156E15C035
:1009F80001F00D0E2FEC0AF020EF05F009C00DF004
:100A08000AC00EF00E50000AD8B40DEF05F020EF22
:100A180005F00D50010AD8B482EF04F0030AD8B4E7
:100A2800A2EF04F0010AD8B4C2EF04F0070AD8B460
:100A3800E2EF04F020EF05F0E90E375C030E3858BA
:100A4800D8A029EF05F02BEF05F02FEF05F0000EE9
:100A5800386E000E376E1200000E176E000E166EFE
:100A6800000E156E000E146E000E0F6E000E0E6E48
:100A7800000E116E000E106E000E136E000E126E38
:100A880089908992899489960A0EC9EC0AF00D6EAC
:100A98000D50416E426A0B0EC9EC0AF00D6E0D50F6
:100AA8003F6E406ACDEF06F0E0EC0AF0010E0E242E
:100AB8000E6E000E0F200F6E0FBE6CEF05F00F507C
:100AC80009E1020E0E5CD8A06CEF05F06EEF05F0A0
:100AD800C3EF06F0000E406E090E3F6EC3EF06F03E
:100AE800010E1024106E000E1120116EE0EC0AF0B9
:100AF80011BE88EF05F0115009E1020E105CD8A074
:100B080088EF05F08AEF05F090EF05F0000E3E6ED5
:100B1800050E3D6EA5EF06F00C0EC9EC0AF00D6E41
:100B28000D503D6E3E6A0D0EC9EC0AF00D6E0D506B
:100B38003B6E3C6AA5EF06F0010E1224126E000E01
:100B48001320136E13BEB2EF05F0135009E1020E25
:100B5800125CD8A0B2EF05F0B4EF05F087EF06F00D
:100B6800000E3C6E090E3B6E87EF06F041504210B6
:100B7800D8A4C1EF05F0C3EF05F0E4EF05F03F504E
:100B88004010D8A4CAEF05F0CCEF05F0E4EF05F06B
:100B98003D503E10D8A4D3EF05F0D5EF05F0E4EFB3
:100BA80005F03B503C10D8A4DCEF05F0DEEF05F073
:100BB800E4EF05F0000E156E010E146E8EEF06F0D0
:100BC800130E3A6E7E0E396ED5EC0AF08B8689804C
:100BD8002B0E4124D96E000E4220DA6EDF50816E52
:100BE8003F0E0D6E550EE82EFED70D2EFCD700F0E9
:100BF800899089822B0E3F24D96E000E4020DA6E30
:100C0800DF50816E3F0E0D6E550EE82EFED70D2E6D
:100C1800FCD700F0899289842B0E3D24D96E000EF2
:100C28003E20DA6EDF50816E3F0E0D6E550EE82EB7
:100C3800FED70D2EFCD700F0899489862B0E3B2415
:100C4800D96E000E3C20DA6EDF50816E3F0E0D6EBD
:100C5800550EE82EFED70D2EFCD700F08996899EFA
:100C680039C001F03AC002F0000E046E4F0E036E58
:100C780099EC08F001500210D8A445EF06F047EFB0
:100C880006F053EF06F08982800E816E3F0E0D6EDE
:100C9800550EE82EFED70D2EFCD700F0899282B4AF
:100CA80058EF06F05AEF06F060EF06F0000E176EE8
:100CB800010E166E70EF06F03906D8A03A063ABE55
:100CC80070EF06F03A5006E13904D8B06EEF06F03E
:100CD80070EF06F0E8EF05F016501710D8A477EF7C
:100CE80006F079EF06F08EEF06F014501510D8B420
:100CF80080EF06F082EF06F084EF06F08EEF06F044
:100D08003B06D8A03C063CBE8EEF06F08CEF06F002
:100D1800BAEF05F016501710D8A495EF06F097EF24
:100D280006F0ACEF06F014501510D8B49EEF06F09C
:100D3800A0EF06F0A2EF06F0ACEF06F03D06D8A053
:100D48003E063EBEACEF06F0AAEF06F0A0EF05F0B7
:100D580016501710D8A4B3EF06F0B5EF06F0CAEF97
:100D680006F014501510D8B4BCEF06F0BEEF06F02C
:100D7800C0EF06F0CAEF06F03F06D8A0400640BE16
:100D8800CAEF06F0C8EF06F074EF05F04106D8A0E8
:100D9800420642BED4EF06F0D2EF06F058EF05F057
:100DA800898E16501710D8B4DCEF06F0DEEF06F087
:100DB800E2EF06F0F7EC09F0E5EF06F08B96A0EC11
:100DC80009F01200700ED36EC00E9B6E9480948250
:100DD80094840F013A959298929A929C929E949636
:100DE8008988898A898C8B968BEC0AF0700EC0EC06
:100DF80007F03BEC08F0F1EC08F0000E1D6E000E59
:100E08001C6E000E1F6E010E1E6E000E1B6E000E75
:100E18001A6E82B012EF07F014EF07F01EEF07F01A
:100E2800898E010E1C1A000E1B6E000E1A6E899E0A
:100E38000DEF07F082B223EF07F025EF07F066EF1A
:100E480007F0898E000E1B6E000E1A6E1C501D10C6
:100E5800D8B431EF07F033EF07F05EEF07F0090E73
:100E6800196E1E0E186EE40EE82EFED7182EFCD74B
:100E7800192EFAD700D01F5007E1040E1E5CD8B017
:100E880048EF07F04AEF07F04EEF07F01E4A1F2A17
:100E980052EF07F0000E1F6E010E1E6E1EC009F005
:100EA8001FC00AF0000E0C6E000E0B6E04EC03F06F
:100EB8000DEF07F0000E1F6E010E1E6E30EC05F0F0
:100EC8000DEF07F082B46BEF07F06DEF07F08BEFD3
:100ED80007F0898E1C501D10D8B475EF07F077EF16
:100EE80007F083EF07F01EC009F01FC00AF0000EDC
:100EF8000C6E010E0B6E04EC03F00DEF07F0000E04
:100F08001B6E010E1A6EF7EC09F00DEF07F01C507E
:100F18001D10D8A492EF07F094EF07F0AFEF07F099
:100F2800D1EC0AF01A501B10D8B49DEF07F09FEFD0
:100F380007F0A3EF07F0F7EC09F0BBEF07F0000E9E
:100F48000A6E000E096E000E0C6E000E0B6E04EC9D
:100F580003F0BBEF07F0D9EC0AF01EC009F01FC080
:100F68000AF0000E0C6E000E0B6E04EC03F0899E66
:100F78000DEF07F000EF00F0076E07C045F0000E18
:100F880071EC0AF0030E066E700E056E5C0EE82E0C
:100F9800FED7052EFCD7062EFAD700D0030E64EC38
:100FA8000AF0680E056EE40EE82EFED7052EFCD773
:100FB80000D0030E64EC0AF0680E056EE40EE82E0D
:100FC800FED7052EFCD700D0030E64EC0AF0680E9D
:100FD800056EE40EE82EFED7052EFCD700D0020ED3
:100FE80064EC0AF0680E056EE40EE82EFED7052EB6
:100FF800FCD700D0280E64EC0AF0050E066E0F0E22
:10100800056EF10EE82EFED7052EFCD7062EFAD770
:1010180000F00C0E64EC0AF0050E066E0F0E056E5D
:10102800F10EE82EFED7052EFCD7062EFAD700F0D3
:10103800010E64EC0AF0050E066E0F0E056EF10E39
:10104800E82EFED7052EFCD7062EFAD700F0060E9E
:1010580064EC0AF0050E066E0F0E056EF10EE82E12
:10106800FED7052EFCD7062EFAD700F01200E0ECCA
:101078000AF0000E436E090E436445EF08F047EF8F
:1010880008F049EF08F094EF08F0898E000E126E10
:10109800030E116ED89011340F6E1234106E0FC0FB
:1010A80009F043C002F0036ADDEC0AF00A6E010E93
:1010B800A3EC0AF00F28096E2E0E0A6E010EA3EC9F
:1010C8000AF0114A122A125009E1070E115CD8A041
:1010D80070EF08F072EF08F04EEF08F0290E0E6E70
:1010E800960E0D6E7F0EE82EFED70D2EFCD70E2E17
:1010F800FAD700F0899E290E0E6E960E0D6E7F0EA1
:10110800E82EFED70D2EFCD70E2EFAD700F0432A74
:10111800090E436492EF08F094EF08F049EF08F0E5
:10112800C1EC0AF0A0EC09F01200000E066E02BE37
:10113800A2EF08F0A0EF08F0A8EF08F0016C021E7B
:10114800D8B0022A010E066E04BEAFEF08F0ADEF6C
:1011580008F0B3EF08F0036C041ED8B0042A03505B
:101168000410D8B4BAEF08F0BCEF08F0E0EF08F0CC
:10117800010E056EC4EF08F0D89003360436052A30
:1011880004AEC9EF08F0CBEF08F0C0EF08F0035049
:10119800015C04500258D8A0D4EF08F0D6EF08F04C
:1011A800DAEF08F00350015E0450025AD890043276
:1011B8000332052ECBEF08F00650D8B4E6EF08F05E
:1011C800E8EF08F0ECEF08F0016C021ED8B0022A34
:1011D80001C001F002C002F012007A0E046EC10EC6
:1011E800036E820EE82EFED7032EFCD7042EFAD704
:1011F800010EC9EC0AF0036E0350056E066A050479
:101208000610D8B40AEF09F00CEF09F038EF09F02E
:101218000A0E076E010E016E07502FEC0AF0020E3F
:10122800046EA00E036E920EE82EFED7032EFCD796
:10123800042EFAD700D0072A0D0E076426EF09F00E
:1012480028EF09F00EEF09F0010E016E010E2FECE8
:101258000AF07A0E046EC10E036E820EE82EFED7D7
:10126800032EFCD7042EFAD71200086E54EF09F0AB
:101278000550BF0F64EC0AF06DEF09F00550930FAD
:1012880064EC0AF06DEF09F00550D30F64EC0AF036
:101298006DEF09F005507F0F64EC0AF06DEF09F06F
:1012A8000850066E076A0750000AD8B45EEF09F0C6
:1012B8004EEF09F00650020AD8B43CEF09F0010AD3
:1012C800D8B442EF09F0070AD8B448EF09F04EEF56
:1012D80009F0120003500410D8B475EF09F077EF45
:1012E80009F09BEF09F0010E056E7FEF09F0D89029
:1012F80003360436052A04AE84EF09F086EF09F0B8
:101308007BEF09F00350015C04500258D8A08FEF1E
:1013180009F091EF09F095EF09F00350015E0450D0
:10132800025AD89004320332052E86EF09F001C024
:1013380001F002C002F01200D1EC0AF0700EC0EC0D
:1013480007F0070E056E010E39EC09F0010E056E67
:10135800060E066ECCEC09F0290E0C6E960E0B6E7E
:101368007F0EE82EFED70B2EFCD70C2EFAD700F0F6
:10137800C1EC0AF0899E050E0C6E0F0E0B6EF10E75
:10138800E82EFED70B2EFCD70C2EFAD700F0120051
:10139800000E0A6E000E096EE2EF09F009500524EE
:1013A800076E0A500620086E07C0F6FF08C0F7FF50
:1013B8000800F55057EC0AF0094A0A2A0950052492
:1013C800076E0A500620086E07C0F6FF08C0F7FF30
:1013D8000800F5500009D8A4F4EF09F0F6EF09F079
:1013E800D2EF09F01200D1EC0AF08B96E0EC0AF08B
:1013F800000E436E2B0E4324D96EDA6A000EDA22F1
:10140800DF50816E090E026E1E0E016EE40EE82E8C
:10141800FED7012EFCD7022EFAD700D0899E1200E3
:101428002E0EF66E150EF76E000EF86E00EE20F01A
:1014380010EE17F00900F5CFEEFFE550E150FAE1A4
:1014480000EE37F00E0EEE6AE806FDE1000EF86ECB
:101458000001E6EF06F0026E02C0A9FF01C0A8FF76
:10146800A69EA69CA684F29E550EA76EAA0EA76EEF
:10147800A682F28EA1A843EF0AF045EF0AF03EEFEC
:101488000AF0A1981200036E445003120350040995
:1014980071EC0AF00350FB0B71EC0AF0A00E00D0BF
:1014A800E82EFDD71200046E010E446E0450F00BB6
:1014B80047EC0AF00438F00BF00B47EC0AF0120086
:1014C800046E000E446E0450F00B47EC0AF004382A
:1014D800F00BF00B47EC0AF01200026EB7EC0AF0C2
:1014E80045507EEC0AF0025036107EEC0AF0ADEC66
:1014F8000AF01200016E01C06FFFA4AE86EF0AF079
:1015080088EF0AF081EF0AF0A49E6B5012009384D2
:1015180093820F0139953993800E6D6E280E6C6E8B
:101528009F0E6E6E1200BF86DBCFE6EDFD87FFEFE4
:0D153800003F065B4F666D7D077F6F00086A
:101546000B6E09C005F00B5039EC09F00A5057EC48
:101556000AF012006B84A4AEB3EF0AF0B5EF0AF0FE
:10156600AEEF0AF0A49E12006B80A4AEBDEF0AF0A7
:10157600BFEF0AF0B8EF0AF0A49E1200010E64EC69
:101586000AF0D50EE82EFED700F01200016E01C05B
:10159600A9FFA694A69EA680A8501200899A8988BB
:1015A600898C12008998898A898C1200899C898A7B
:0C15B600898812000250300F1200120051
:020000040020DA
:08000000FFFFFFFFFFFFFFFF00
:020000040030CA
:0E000000FF380F3CFFBF85FF0FC00FE00F4021
:00000001FF
