:04000000F9EF03F021
:10060000004C6F6164696E67002E2E2E0000066E2E
:1006100006C00BF0000E22EC04F04E0E056EEB0E41
:10062000E82EFED7052EFCD700F0030E15EC04F0E3
:100630000D0E056EFC0EE82EFED7052EFCD7030E20
:1006400015EC04F00D0E056EFC0EE82EFED7052EFF
:10065000FCD7030E15EC04F00D0E056EFC0EE82E13
:10066000FED7052EFCD7020E15EC04F00D0E056E1C
:10067000FC0EE82EFED7052EFCD7280E15EC04F054
:10068000820E056EDE0EE82EFED7052EFCD70C0E70
:1006900015EC04F0820E056EDE0EE82EFED7052E58
:1006A000FCD7010E15EC04F0820E056EDE0EE82E6E
:1006B000FED7052EFCD7060E15EC04F0820E056E53
:1006C000DE0EE82EFED7052EFCD71200086E81EF55
:1006D00003F00550BF0F15EC04F09AEF03F005503E
:1006E000930F15EC04F09AEF03F00550D30F15ECBF
:1006F00004F09AEF03F005507F0F15EC04F09AEF29
:1007000003F00850066E076A0750000AD8B48BEF52
:1007100003F07BEF03F00650020AD8B469EF03F050
:10072000010AD8B46FEF03F0070AD8B475EF03F0ED
:100730007BEF03F01200000E0A6E000E096EB1EF9F
:1007400003F009500524076E0A500620086E07C002
:10075000F6FF08C0F7FF0800F55008EC04F0094A5E
:100760000A2A09500524076E0A500620086E07C0A1
:10077000F6FF08C0F7FF0800F5500009D8A4C3EF42
:1007800003F0C5EF03F0A1EF03F01200700ED36E7B
:10079000C00E9B6E3CEC04F0700E07EC03F0010EF3
:1007A000056E010E66EC03F0010E056E060E066E78
:1007B0009BEC03F00A0E056E010E66EC03F0090EC9
:1007C000056E060E066E9BEC03F0E5EF03F000EFFE
:1007D00000F0036E0C5003120350040922EC04F0E5
:1007E0000350FB0B22EC04F0210EE82EFED700F0A4
:1007F0001200B80EF66E080EF76E000EF86E0900C5
:10080000F5CF0DF00C6A000EF86E0001C6EF03F094
:10081000046E010E0C6E0450F00BE9EC03F004388A
:10082000F00BF00BE9EC03F01200046E000E0C6EFE
:100830000450F00BE9EC03F00438F00BF00BE9EC9A
:1008400003F01200026E52EC04F00B502FEC04F097
:1008500002500D102FEC04F048EC04F01200016E71
:1008600001C06FFFA4AE37EF04F039EF04F032EFB0
:1008700004F0A49E6B501200938493820F0139956B
:100880003993800E6D6E280E6C6E9F0E6E6E120088
:100890006B84A4AE4EEF04F050EF04F049EF04F087
:1008A000A49E12006B80A4AE58EF04F05AEF04F03F
:0908B00053EF04F0A49E120008AD
:020000040020DA
:08000000FFFFFFFFFFFFFFFF00
:020000040030CA
:0E000000FF380F3CFFBF85FF0FC00FE00F4021
:00000001FF
