:0400000069EF0AF0AA
:07060000004F5645520000B7
:10060800010E3724376E000E3820386E060E056E40
:10061800010E9AEC09F009040A10D8A416EF03F0A9
:1006280018EF03F029EF03F0200EACEC0AF0110EDE
:100638000E6E3C0E0D6ECB0EE82EFED70D2EFCD79F
:100648000E2EFAD700F034EF03F00A0E1EEC0BF072
:100658000D6E0D50026E036A32EC0BF0ACEC0AF032
:10066800080E056E010E9AEC09F0020E09180A1020
:10067800D8A441EF03F043EF03F054EF03F0200E4A
:10068800ACEC0AF0110E0E6E3C0E0D6ECB0EE82E81
:10069800FED70D2EFCD70E2EFAD700F067EF03F029
:1006A8000B0E1EEC0BF00D6E0D50026E036A32EC51
:1006B8000BF0ACEC0AF0090E056E010E9AEC09F08D
:1006C8003A0EACEC0AF00A0E056E010E9AEC09F02F
:1006D800030E09180A10D8A474EF03F076EF03F09C
:1006E80087EF03F0200EACEC0AF0110E0E6E3C0EF4
:1006F8000D6ECB0EE82EFED70D2EFCD70E2EFAD798
:1007080000F092EF03F00C0E1EEC0BF00D6E0D5086
:10071800026E036A32EC0BF0ACEC0AF00C0E056EBC
:10072800010E9AEC09F0040E09180A10D8A49FEFDC
:1007380003F0A1EF03F0B2EF03F0200EACEC0AF0E7
:10074800110E0E6E3C0E0D6ECB0EE82EFED70D2E42
:10075800FCD70E2EFAD700F0BDEF03F00D0E1EECFD
:100768000BF00D6E0D50026E036A32EC0BF0ACEC20
:100778000AF0899E37C001F038C002F0000E046EFE
:100788000C0E036ECFEC09F001500210D8B4CFEF75
:1007980003F0D1EF03F03AEF04F037C001F038C0AE
:1007A80002F0000E046E060E036ECFEC09F0015045
:1007B8000210D8A4E2EF03F0E4EF03F058EF04F0DE
:1007C8003AEF04F0060E056E010E9AEC09F00A0ED7
:1007D8001EEC0BF00D6E0D50026E036A32EC0BF03E
:1007E800ACEC0AF0110E0E6E3C0E0D6ECB0EE82E20
:1007F800FED70D2EFCD70E2EFAD700F058EF04F0D6
:10080800080E056E010E9AEC09F00B0E1EEC0BF0AB
:100818000D6E0D50026E036A32EC0BF0ACEC0AF070
:10082800F6EF03F00A0E056E010E9AEC09F00C0EB5
:100838001EEC0BF00D6E0D50026E036A32EC0BF0DD
:10084800ACEC0AF0F6EF03F00C0E056E010E9AEC14
:1008580009F00D0E1EEC0BF00D6E0D50026E036AC2
:1008680032EC0BF0ACEC0AF0F6EF03F009C00DF037
:100878000AC00EF00E50000AD8B445EF04F058EF45
:1008880004F00D50010AD8B4E6EF03F0030AD8B417
:1008980004EF04F0010AD8B416EF04F0070AD8B43C
:1008A80028EF04F058EF04F00B500C10D8B45FEFA9
:1008B80004F061EF04F014EF05F037B066EF04F0D0
:1008C80068EF04F014EF05F0F6EF04F00A0E1EECE2
:1008D8000BF00D6E010E0D240F6E106A000E102223
:1008E800105009E10A0E0F5CD8A07DEF04F07FEFED
:1008F80004F083EF04F0000E106E000E0F6E0FC0B0
:1009080001F00A0E84EC0AF0050E0E6E0F0E0D6E45
:10091800F10EE82EFED70D2EFCD70E2EFAD700F0DA
:1009280014EF05F00B0E1EEC0BF00D6E010E0D24EE
:10093800116E126A000E1222125009E10A0E115CA1
:10094800D8A0A9EF04F0ABEF04F0AFEF04F0000E6D
:10095800126E000E116E11C001F00B0E84EC0AF03D
:1009680088EF04F00C0E1EEC0BF00D6E010E0D243A
:10097800136E146A000E1422145009E1060E135C5B
:10098800D8A0C9EF04F0CBEF04F0CFEF04F0000ECD
:10099800146E000E136E13C001F00C0E84EC0AF0F6
:1009A80088EF04F00D0E1EEC0BF00D6E010E0D24F9
:1009B800156E166A000E1622165009E10A0E155C0D
:1009C800D8A0E9EF04F0EBEF04F0EFEF04F0000E2D
:1009D800166E000E156E15C001F00D0E84EC0AF0AF
:1009E80088EF04F009C00DF00AC00EF00E50000A9E
:1009F800D8B401EF05F014EF05F00D50010AD8B492
:100A08006AEF04F0030AD8B496EF04F0010AD8B4E8
:100A1800B6EF04F0070AD8B4D6EF04F014EF05F0E7
:100A2800E90E375C030E3858D8A01DEF05F01FEF0C
:100A380005F023EF05F0000E386E000E376E120039
:100A4800000E176E000E166E000E156E000E146E58
:100A5800000E0F6E000E0E6E000E116E000E106E60
:100A6800000E136E000E126E8990899289948996F1
:100A78000A0E1EEC0BF00D6E0D50416E426A0B0E05
:100A88001EEC0BF00D6E0D503F6E406AC1EF06F084
:100A980035EC0BF0010E0E240E6E000E0F200F6EBB
:100AA8000FBE60EF05F00F5009E1020E0E5CD8A0F2
:100AB80060EF05F062EF05F0B7EF06F0000E406E4C
:100AC800090E3F6EB7EF06F0010E1024106E000EEF
:100AD8001120116E35EC0BF011BE7CEF05F01150B2
:100AE80009E1020E105CD8A07CEF05F07EEF05F05E
:100AF80084EF05F0000E3E6E050E3D6E99EF06F090
:100B08000C0E1EEC0BF00D6E0D503D6E3E6A0D0E78
:100B18001EEC0BF00D6E0D503B6E3C6A99EF06F023
:100B2800010E1224126E000E1320136E13BEA6EFD0
:100B380005F0135009E1020E125CD8A0A6EF05F0EB
:100B4800A8EF05F07BEF06F0000E3C6E090E3B6E39
:100B58007BEF06F041504210D8A4B5EF05F0B7EF8F
:100B680005F0D8EF05F03F504010D8A4BEEF05F0CF
:100B7800C0EF05F0D8EF05F03D503E10D8A4C7EF00
:100B880005F0C9EF05F0D8EF05F03B503C10D8A4AC
:100B9800D0EF05F0D2EF05F0D8EF05F0000E156E96
:100BA800010E146E82EF06F0130E3A6E7E0E396E49
:100BB8002AEC0BF08B8689802B0E4124D96E000E0F
:100BC8004220DA6EDF50816E3F0E0D6E550EE82E14
:100BD800FED70D2EFCD700F0899089822B0E3F247A
:100BE800D96E000E4020DA6EDF50816E3F0E0D6E1A
:100BF800550EE82EFED70D2EFCD700F08992898479
:100C08002B0E3D24D96E000E3E20DA6EDF50816E29
:100C18003F0E0D6E550EE82EFED70D2EFCD700F0B8
:100C2800899489862B0E3B24D96E000E3C20DA6EFF
:100C3800DF50816E3F0E0D6E550EE82EFED70D2E3D
:100C4800FCD700F08996899E39C001F03AC002F0BD
:100C5800000E046E4F0E036E42EC09F001500210B4
:100C6800D8A439EF06F03BEF06F047EF06F089828B
:100C7800800E816E3F0E0D6E550EE82EFED70D2E9E
:100C8800FCD700F0899282B44CEF06F04EEF06F0E4
:100C980054EF06F0000E176E010E166E64EF06F0A4
:100CA8003906D8A03A063ABE64EF06F03A5006E193
:100CB8003904D8B062EF06F064EF06F0DCEF05F017
:100CC80016501710D8A46BEF06F06DEF06F082EF00
:100CD80006F014501510D8B474EF06F076EF06F04D
:100CE80078EF06F082EF06F03B06D8A03C063CBE43
:100CF80082EF06F080EF06F0AEEF05F01650171001
:100D0800D8A489EF06F08BEF06F0A0EF06F0145098
:100D18001510D8B492EF06F094EF06F096EF06F0AF
:100D2800A0EF06F03D06D8A03E063EBEA0EF06F0B6
:100D38009EEF06F094EF05F016501710D8A4A7EF11
:100D480006F0A9EF06F0BEEF06F014501510D8B45F
:100D5800B0EF06F0B2EF06F0B4EF06F0BEEF06F023
:100D68003F06D8A0400640BEBEEF06F0BCEF06F036
:100D780068EF05F04106D8A0420642BEC8EF06F06B
:100D8800C6EF06F04CEF05F0898E16501710D8B450
:100D9800D0EF06F0D2EF06F0D6EF06F04CEC0AF0F2
:100DA800D9EF06F08B962CEC0AF01200700ED36E79
:100DB800C00E9B6E9480948294840F013A95929809
:100DC800929A929C929E94968988898A898C8B960D
:100DD800E0EC0AF0700E69EC08F0E4EC08F0520E52
:100DE800196E2B0E186E000EE82EFED7182EFCD7A3
:100DF800192EFAD700D0C0EC07F0000E1D6E000EB9
:100E08001C6E000E1F6E010E1E6E000E1B6E000E75
:100E18001A6E82B012EF07F014EF07F01EEF07F01A
:100E2800898E010E1C1A000E1B6E000E1A6E899E0A
:100E38000DEF07F082B223EF07F025EF07F066EF1A
:100E480007F0898E000E1B6E000E1A6E1C501D10C6
:100E5800D8B431EF07F033EF07F05EEF07F0090E73
:100E6800196E1E0E186EE40EE82EFED7182EFCD74B
:100E7800192EFAD700D01F5007E1040E1E5CD8B017
:100E880048EF07F04AEF07F04EEF07F01E4A1F2A17
:100E980052EF07F0000E1F6E010E1E6E1EC009F005
:100EA8001FC00AF0000E0C6E000E0B6E04EC03F06F
:100EB8000DEF07F0000E1F6E010E1E6E24EC05F0FC
:100EC8000DEF07F082B46BEF07F06DEF07F08BEFD3
:100ED80007F0898E1C501D10D8B475EF07F077EF16
:100EE80007F083EF07F01EC009F01FC00AF0000EDC
:100EF8000C6E010E0B6E04EC03F00DEF07F0000E04
:100F08001B6E010E1A6E4CEC0AF00DEF07F01C5028
:100F18001D10D8A492EF07F094EF07F0AFEF07F099
:100F280026EC0BF01A501B10D8B49DEF07F09FEF7A
:100F380007F0A3EF07F04CEC0AF0BBEF07F0000E48
:100F48000A6E000E096E000E0C6E000E0B6E04EC9D
:100F580003F0BBEF07F02EEC0BF01EC009F01FC02A
:100F68000AF0000E0C6E000E0B6E04EC03F0899E66
:100F78000DEF07F000EF00F00F0E076E000E066E83
:100F8800000E056E520E046E2B0E036E000EE82E38
:100F9800FED7032EFCD7042EFAD700D0E0EF07F0D7
:100FA800290E046E960E036E7F0EE82EFED7032ED2
:100FB800FCD7042EFAD700F00A0E1EEC0BF000093D
:100FC800D8A4E9EF07F0EBEF07F017EF08F00B0EE6
:100FD8001EEC0BF00009D8A4F4EF07F0F6EF07F0C9
:100FE80017EF08F00C0E1EEC0BF00009D8A4FFEF69
:100FF80007F001EF08F017EF08F00D0E1EEC0BF0EC
:101008000009D8A40AEF08F00CEF08F017EF08F071
:101018000F0E1EEC0BF00009D8B415EF08F017EF0F
:1010280008F0D4EF07F00F0E1EEC0BF0E806D8A47A
:1010380020EF08F022EF08F026EF08F0000E066E09
:10104800010E056E05040610D8B42DEF08F02FEF39
:1010580008F05CEF08F00A0E086E000E016E0850EA
:1010680084EC0AF0020E046EA00E036E920EE82EB7
:10107800FED7032EFCD7042EFAD700D0082A0D0E6F
:10108800086449EF08F04BEF08F031EF08F0010E63
:10109800016E075084EC0AF0020E046EA00E036E77
:1010A800920EE82EFED7032EFCD7042EFAD700D0D6
:1010B800520E046E2B0E036E000EE82EFED7032E82
:1010C800FCD7042EFAD700D01200076E07C045F0EF
:1010D800000EC6EC0AF0030E066E700E056E5C0E6E
:1010E800E82EFED7052EFCD7062EFAD700D0030E21
:1010F800B9EC0AF0680E056EE40EE82EFED7052E50
:10110800FCD700D0030EB9EC0AF0680E056EE40EA9
:10111800E82EFED7052EFCD700D0030EB9EC0AF056
:10112800680E056EE40EE82EFED7052EFCD700D01B
:10113800020EB9EC0AF0680E056EE40EE82EFED732
:10114800052EFCD700D0280EB9EC0AF0050E066E65
:101158000F0E056EF10EE82EFED7052EFCD7062ED3
:10116800FAD700F00C0EB9EC0AF0050E066E0F0E59
:10117800056EF10EE82EFED7052EFCD7062EFAD7FF
:1011880000F0010EB9EC0AF0050E066E0F0E056EA2
:10119800F10EE82EFED7052EFCD7062EFAD700F062
:1011A800060EB9EC0AF0050E066E0F0E056EF10E6E
:1011B800E82EFED7052EFCD7062EFAD700F012002F
:1011C80035EC0BF0000E436E010E4364EEEF08F0B1
:1011D800F0EF08F0F2EF08F03DEF09F0898E000E0D
:1011E800126E030E116ED89011340F6E1234106EF9
:1011F8000FC009F043C002F0036A32EC0BF00A6E2C
:10120800010EF8EC0AF00F28096E2E0E0A6E010E78
:10121800F8EC0AF0114A122A125009E1070E115C83
:10122800D8A019EF09F01BEF09F0F7EF08F0290E25
:101238000E6E960E0D6E7F0EE82EFED70D2EFCD785
:101248000E2EFAD700F0899E290E0E6E960E0D6EA0
:101258007F0EE82EFED70D2EFCD70E2EFAD700F003
:10126800432A010E43643BEF09F03DEF09F0F2EF2A
:1012780008F016EC0BF02CEC0AF01200000E066ECB
:1012880002BE4BEF09F049EF09F051EF09F0016C8C
:10129800021ED8B0022A010E066E04BE58EF09F0ED
:1012A80056EF09F05CEF09F0036C041ED8B0042A6D
:1012B80003500410D8B463EF09F065EF09F089EF23
:1012C80009F0010E056E6DEF09F0D890033604366B
:1012D800052A04AE72EF09F074EF09F069EF09F01E
:1012E8000350015C04500258D8A07DEF09F07FEF4D
:1012F80009F083EF09F00350015E0450025AD890B8
:1013080004320332052E74EF09F00650D8B48FEF7B
:1013180009F091EF09F095EF09F0016C021ED8B0C1
:10132800022A01C001F002C002F01200086EB5EFF7
:1013380009F00550BF0FB9EC0AF0CEEF09F00550DF
:10134800930FB9EC0AF0CEEF09F00550D30FB9ECC2
:101358000AF0CEEF09F005507F0FB9EC0AF0CEEF96
:1013680009F00850066E076A0750000AD8B4BFEFA4
:1013780009F0AFEF09F00650020AD8B49DEF09F062
:10138800010AD8B4A3EF09F0070AD8B4A9EF09F005
:10139800AFEF09F0120003500410D8B4D6EF09F0EB
:1013A800D8EF09F0FCEF09F0010E056EE0EF09F047
:1013B800D89003360436052A04AEE5EF09F0E7EFC6
:1013C80009F0DCEF09F00350015C04500258D8A082
:1013D800F0EF09F0F2EF09F0F6EF09F00350015EC3
:1013E8000450025AD89004320332052EE7EF09F070
:1013F80001C001F002C002F01200000E0A6E000ED9
:10140800096E17EF0AF009500524076E0A500620E6
:10141800086E07C0F6FF08C0F7FF0800F550ACECEF
:101428000AF0094A0A2A09500524076E0A500620BC
:10143800086E07C0F6FF08C0F7FF0800F55000095E
:10144800D8A429EF0AF02BEF0AF007EF0AF01200F0
:1014580026EC0BF0700E69EC08F0070E056E010E15
:101468009AEC09F0010E056E060E066E01EC0AF004
:10147800290E0C6E960E0B6E7F0EE82EFED70B2EE5
:10148800FCD70C2EFAD700F016EC0BF0899E120050
:1014980026EC0BF08B9635EC0BF0000E436E2B0E02
:1014A8004324D96EDA6A000EDA22DF50816E090E03
:1014B800026E1E0E016EE40EE82EFED7012EFCD73A
:1014C800022EFAD700D0899E1200D80EF66E150E9D
:1014D800F76E000EF86E00EE20F010EE17F009001F
:1014E800F5CFEEFFE550E150FAE100EE37F00E0ED1
:1014F800EE6AE806FDE1000EF86E0001DAEF06F08C
:10150800026E02C0A9FF01C0A8FFA69EA69CA684E1
:10151800F29E550EA76EAA0EA76EA682F28EA1A8FD
:1015280098EF0AF09AEF0AF093EF0AF0A1981200E8
:10153800036E4450031203500409C6EC0AF003502A
:10154800FB0BC6EC0AF0A00E00D0E82EFDD7120067
:10155800046E010E446E0450F00B9CEC0AF0043843
:10156800F00BF00B9CEC0AF01200046E000E446EB7
:101578000450F00B9CEC0AF00438F00BF00B9CECD8
:101588000AF01200026E0CEC0BF04550D3EC0AF096
:1015980002503610D3EC0AF002EC0BF01200016E88
:1015A80001C06FFFA4AEDBEF0AF0DDEF0AF0D6EF63
:1015B8000AF0A49E6B501200938493820F01399510
:1015C8003993800E6D6E280E6C6E9F0E6E6E120033
:1015D800BF86DBCFE6EDFD87FFEF003F065B4F667A
:0715E8006D7D077F6F000815
:1015F0000B6E09C005F00B509AEC09F00A50ACECE8
:101600000AF012006B84A4AE08EF0BF00AEF0BF0A7
:1016100003EF0BF0A49E12006B80A4AE12EF0BF050
:1016200014EF0BF00DEF0BF0A49E1200010EB9ECBD
:101630000AF0D50EE82EFED700F01200016E01C0B0
:10164000A9FFA694A69EA680A8501200899A898810
:10165000898C12008998898A898C1200899C898AD0
:0C166000898812000250300F12001200A6
:020000040020DA
:08000000FFFFFFFFFFFFFFFF00
:020000040030CA
:0E000000FF381A3CFFBF85FF0FC00FE00F4016
:00000001FF
