:0400000076EF09F09E
:07060000004F5645520000B7
:10060800010E3724376E000E3820386E0A0E3DEC86
:100618000AF00E6E0B0E3DEC0AF00F6E0C0E3DEC60
:100628000AF0106E0D0E3DEC0AF0116E000E0D6E04
:10063800000E0C6E06040710D8A425EF03F029EF6E
:1006480003F00A6A0A2A2AEF03F00A6A89500A188C
:10065800FE0B0A18896E2B0E0E24D96EDA6A000E6C
:10066800DA22DF50816E3F0E0A6E550EE82EFED755
:100678000A2EFCD700F08990020E06180710D8A49D
:1006880048EF03F04CEF03F00A6A0A2A4DEF03F033
:100698000A6A0A4689500A18FD0B0A18896E200E44
:1006A8000F24D96EDA6A000EDA22DF50816E3F0E0F
:1006B8000A6E550EE82EFED70A2EFCD700F0899256
:1006C800030E06180710D8A46CEF03F070EF03F0C0
:1006D8000A6A0A2A71EF03F00A6A0A460A4689502A
:1006E8000A18FB0B0A18896E2B0E1024D96EDA6AC9
:1006F800000EDA22DF50816E3F0E0A6E550EE82E8C
:10070800FED70A2EFCD700F08994040E06180710AD
:10071800D8A491EF03F095EF03F00A6A0A2A96EF3E
:1007280003F00A6A0A460A460A4689500A18F70B6D
:100738000A18896E2B0E1124D96EDA6A000EDA2295
:10074800DF50816E3F0E0A6E550EE82EFED70A2E38
:10075800FCD700F08996899E37C001F038C002F0B6
:10076800000E046E0C0E036EFCEC08F00150021033
:10077800D8B4C1EF03F0C3EF03F028EF04F037C09B
:1007880001F038C002F0000E046E060E036EFCEC99
:1007980008F001500210D8A4D4EF03F0D6EF03F00C
:1007A80046EF04F028EF04F089802B0E0E24D96E52
:1007B800DA6A000EDA22DF50816E3F0E0A6E550E9D
:1007C800E82EFED70A2EFCD700F0899046EF04F0F9
:1007D8008982200E0F24D96EDA6A000EDA22DF50E1
:1007E800816E3F0E0A6E550EE82EFED70A2EFCD7F4
:1007F80000F0899246EF04F089842B0E1024D96EFC
:10080800DA6A000EDA22DF50816E3F0E0A6E550E4C
:10081800E82EFED70A2EFCD700F0899446EF04F0A4
:1008280089862B0E1124D96EDA6A000EDA22DF507F
:10083800816E3F0E0A6E550EE82EFED70A2EFCD7A3
:1008480000F0899646EF04F006C00AF007C00BF0E6
:100858000B50000AD8B433EF04F046EF04F00A5006
:10086800010AD8B4D8EF03F0030AD8B4ECEF03F0C8
:10087800010AD8B400EF04F0070AD8B414EF04F062
:1008880046EF04F00C4A0D2A0D5009E10A0E0C5CE3
:10089800D8A051EF04F053EF04F01EEF03F0085016
:1008A8000910D8B45AEF04F05CEF04F0CFEF04F06D
:1008B80037B061EF04F063EF04F0CFEF04F0B1EF6D
:1008C80004F00E280E6E090E0E646DEF04F06FEF43
:1008D80004F071EF04F0000E0E6E0EC001F00A0E67
:1008E80091EC09F0CFEF04F00F280F6E090E0F649A
:1008F80080EF04F082EF04F084EF04F0000E0F6E36
:100908000FC001F00B0E91EC09F0CFEF04F01028A6
:10091800106E050E106493EF04F095EF04F097EF56
:1009280004F0000E106E10C001F00C0E91EC09F0EE
:10093800CFEF04F01128116E090E1164A6EF04F030
:10094800A8EF04F0AAEF04F0000E116E11C001F038
:100958000D0E91EC09F0CFEF04F006C00AF007C0C5
:100968000BF00B50000AD8B4BCEF04F0CFEF04F042
:100978000A50010AD8B465EF04F0030AD8B478EF36
:1009880004F0010AD8B48BEF04F0070AD8B49EEF3C
:1009980004F0CFEF04F0E90E375C030E3858D8A006
:1009A800D8EF04F0DAEF04F0DEEF04F0000E386E52
:1009B800000E376E1200000E156E000E146E000E3B
:1009C800136E000E126E000E0D6E000E0C6E000EF1
:1009D8000F6E000E0E6E000E116E000E106E8990D6
:1009E8008992899489960A0E3DEC0AF00B6E0B5099
:1009F800416E426A0B0E3DEC0AF00B6E0B503F6ED7
:100A0800406A7CEF06F054EC0AF0010E0C240C6EE0
:100A1800000E0D200D6E0DBE1BEF05F00D5009E107
:100A2800020E0C5CD8A01BEF05F01DEF05F072EF6D
:100A380006F0000E406E090E3F6E72EF06F0010ED2
:100A48000E240E6E000E0F200F6E54EC0AF00FBE2F
:100A580037EF05F00F5009E1020E0E5CD8A037EF12
:100A680005F039EF05F03FEF05F0000E3E6E050E7C
:100A78003D6E54EF06F00C0E3DEC0AF00B6E0B5079
:100A88003D6E3E6A0D0E3DEC0AF00B6E0B503B6E50
:100A98003C6A54EF06F0010E1024106E000E11206F
:100AA800116E11BE61EF05F0115009E1020E105CE4
:100AB800D8A061EF05F063EF05F036EF06F0000E01
:100AC8003C6E090E3B6E36EF06F041504210D8A43A
:100AD80070EF05F072EF05F093EF05F03F5040100E
:100AE800D8A479EF05F07BEF05F093EF05F03D50C2
:100AF8003E10D8A482EF05F084EF05F093EF05F0DF
:100B08003B503C10D8A48BEF05F08DEF05F093EF28
:100B180005F0000E136E010E126E3DEF06F0130E77
:100B28003A6E7E0E396E49EC0AF08B8689802B0E60
:100B38004124D96E000E4220DA6EDF50816E3F0EDE
:100B48000B6E550EE82EFED70B2EFCD700F08990C1
:100B580089822B0E3F24D96E000E4020DA6EDF50BA
:100B6800816E3F0E0B6E550EE82EFED70B2EFCD76E
:100B780000F0899289842B0E3D24D96E000E3E2008
:100B8800DA6EDF50816E3F0E0B6E550EE82EFED7E3
:100B98000B2EFCD700F0899489862B0E3B24D96E46
:100BA800000E3C20DA6EDF50816E3F0E0B6E550E44
:100BB800E82EFED70B2EFCD700F08996899E39C007
:100BC80001F03AC002F0000E046E4F0E036E6FEC97
:100BD80008F001500210D8A4F4EF05F0F6EF05F084
:100BE80002EF06F08982800E816E3F0E0B6E550E65
:100BF800E82EFED70B2EFCD700F0899282B407EFBF
:100C080006F009EF06F00FEF06F0000E156E010E64
:100C1800146E1FEF06F03906D8A03A063ABE1FEF49
:100C280006F03A5006E13904D8B01DEF06F01FEF80
:100C380006F097EF05F014501510D8A426EF06F02B
:100C480028EF06F03DEF06F012501310D8B42FEF3E
:100C580006F031EF06F033EF06F03DEF06F03B0605
:100C6800D8A03C063CBE3DEF06F03BEF06F069EF2E
:100C780005F014501510D8A444EF06F046EF06F01E
:100C88005BEF06F012501310D8B44DEF06F04FEF9B
:100C980006F051EF06F05BEF06F03D06D8A03E06E1
:100CA8003EBE5BEF06F059EF06F04FEF05F014502B
:100CB8001510D8A462EF06F064EF06F079EF06F09D
:100CC80012501310D8B46BEF06F06DEF06F06FEF0B
:100CD80006F079EF06F03F06D8A0400640BE79EF4F
:100CE80006F077EF06F023EF05F04106D8A042069C
:100CF80042BE83EF06F081EF06F007EF05F0898E1C
:100D080014501510D8B48BEF06F08DEF06F091EF64
:100D180006F059EC09F094EF06F08B96A9EC09F06F
:100D28001200700ED36EC00E9B6E948094829484D1
:100D38000F013A959298929A929C929E94968988DD
:100D4800898A898C8B96FFEC09F0700E96EC07F077
:100D580011EC08F0010E3DEC0AF0166E1650186EF4
:100D6800196A18041910D8B4BCEF06F0BEEF06F0E3
:100D7800D7EF06F0000E016E0A0E91EC09F0000E96
:100D8800016E0B0E91EC09F0000E016E0C0E91EC49
:100D980009F0000E016E0D0E91EC09F0010E016EC6
:100DA800010E91EC09F0000E1D6E000E1C6E000E77
:100DB8001F6E010E1E6E000E1B6E000E1A6E82B0A4
:100DC800E8EF06F0EAEF06F0F4EF06F0898E010E80
:100DD8001C1A000E1B6E000E1A6E899EE3EF06F0B9
:100DE80082B2F9EF06F0FBEF06F03CEF07F0898ED0
:100DF800000E1B6E000E1A6E1C501D10D8B407EFA3
:100E080007F009EF07F034EF07F0090E176E1E0E12
:100E1800166EE40EE82EFED7162EFCD7172EFAD73C
:100E280000D01F5007E1040E1E5CD8B01EEF07F07B
:100E380020EF07F024EF07F01E4A1F2A28EF07F0DB
:100E4800000E1F6E010E1E6E1EC006F01FC007F0BA
:100E5800000E096E000E086E04EC03F0E3EF06F0D6
:100E6800000E1F6E010E1E6EDFEC04F0E3EF06F0BD
:100E780082B441EF07F043EF07F061EF07F0898E86
:100E88001C501D10D8B44BEF07F04DEF07F059EF89
:100E980007F01EC006F01FC007F0000E096E010E15
:100EA800086E04EC03F0E3EF06F0000E1B6E010E73
:100EB8001A6E59EC09F0E3EF06F01C501D10D8A487
:100EC80068EF07F06AEF07F085EF07F045EC0AF0E6
:100ED8001A501B10D8B473EF07F075EF07F079EFCD
:100EE80007F059EC09F091EF07F0000E076E000EBD
:100EF800066E000E096E000E086E04EC03F091EF0A
:100F080007F04DEC0AF01EC006F01FC007F0000EF7
:100F1800096E000E086E04EC03F0899EE3EF06F0FC
:100F280000EF00F0076E07C045F0000EE5EC09F091
:100F3800030E066E700E056E5C0EE82EFED7052EAB
:100F4800FCD7062EFAD700D0030ED8EC09F0680EAD
:100F5800056EE40EE82EFED7052EFCD700D0030E52
:100F6800D8EC09F0680E056EE40EE82EFED7052EC3
:100F7800FCD700D0030ED8EC09F0680E056EE40E1D
:100F8800E82EFED7052EFCD700D0020ED8EC09F0CB
:100F9800680E056EE40EE82EFED7052EFCD700D0AD
:100FA800280ED8EC09F0050E066E0F0E056EF10E30
:100FB800E82EFED7052EFCD7062EFAD700F00C0E29
:100FC800D8EC09F0050E066E0F0E056EF10EE82E30
:100FD800FED7052EFCD7062EFAD700F0010ED8EC66
:100FE80009F0050E066E0F0E056EF10EE82EFED7FF
:100FF800052EFCD7062EFAD700F0060ED8EC09F01D
:10100800050E066E0F0E056EF10EE82EFED7052EA4
:10101800FCD7062EFAD700F0120054EC0AF0000EA6
:10102800436E090E43641BEF08F01DEF08F01FEF35
:1010380008F06AEF08F0898E000E116E030E106E2C
:10104800D89010340E6E11340F6E0EC009F043C0E4
:1010580001F0026A51EC0AF00A6E010E17EC0AF070
:101068000E28096E2E0E0A6E010E17EC0AF0104AB1
:10107800112A115009E1070E105CD8A046EF08F0BC
:1010880048EF08F024EF08F0290E0D6E960E0C6E4E
:101098007F0EE82EFED70C2EFCD70D2EFAD700F0C7
:1010A800899E290E0D6E960E0C6E7F0EE82EFED7C9
:1010B8000C2EFCD70D2EFAD700F0432A090E4364F4
:1010C80068EF08F06AEF08F01FEF08F035EC0AF057
:1010D800A9EC09F01200000E066E02BE78EF08F0C7
:1010E80076EF08F07EEF08F0016C021ED8B0022AF5
:1010F800010E066E04BE85EF08F083EF08F089EF55
:1011080008F0036C041ED8B0042A03500410D8B4A5
:1011180090EF08F092EF08F0B6EF08F0010E056EB8
:101128009AEF08F0D89003360436052A04AE9FEFEC
:1011380008F0A1EF08F096EF08F00350015C0450A6
:101148000258D8A0AAEF08F0ACEF08F0B0EF08F00A
:101158000350015E0450025AD89004320332052E1F
:10116800A1EF08F00650D8B4BCEF08F0BEEF08F0C5
:10117800C2EF08F0016C021ED8B0022A01C001F0CB
:1011880002C002F01200086EE2EF08F00550BF0F2F
:10119800D8EC09F0FBEF08F00550930FD8EC09F0F4
:1011A800FBEF08F00550D30FD8EC09F0FBEF08F07F
:1011B80005507F0FD8EC09F0FBEF08F00850066ED9
:1011C800076A0750000AD8B4ECEF08F0DCEF08F023
:1011D8000650020AD8B4CAEF08F0010AD8B4D0EF12
:1011E80008F0070AD8B4D6EF08F0DCEF08F01200D0
:1011F80003500410D8B403EF09F005EF09F029EF04
:1012080009F0010E056E0DEF09F0D890033604368B
:10121800052A04AE12EF09F014EF09F009EF09F0FE
:101228000350015C04500258D8A01DEF09F01FEFCD
:1012380009F023EF09F00350015E0450025AD890D8
:1012480004320332052E14EF09F001C001F002C088
:1012580002F01200000E0A6E000E096E44EF09F04B
:1012680009500524076E0A500620086E07C0F6FFCD
:1012780008C0F7FF0800F550CBEC09F0094A0A2A24
:1012880009500524076E0A500620086E07C0F6FFAD
:1012980008C0F7FF0800F5500009D8A456EF09F078
:1012A80058EF09F034EF09F0120045EC0AF08B967C
:1012B80054EC0AF0000E436E2B0E4324D96EDA6A02
:1012C800000EDA22DF50816E090E026E1E0E016ECC
:1012D800E40EE82EFED7012EFCD7022EFAD700D056
:1012E800899E1200160EF66E140EF76E000EF86E3A
:1012F80000EE20F010EE17F00900F5CFEEFFE550F4
:10130800E150FAE100EE37F00E0EEE6AE806FDE174
:10131800000EF86E000195EF06F0026E02C0A9FFFC
:1013280001C0A8FFA69EA69CA684F29E550EA76E95
:10133800AA0EA76EA682F28EA1A8A5EF09F0A7EFC4
:1013480009F0A0EF09F0A198120045EC0AF0700E20
:1013580096EC07F0070E056E010EC7EC08F0010EBB
:10136800056E060E066E2EEC09F0899E1200036EBD
:101378004450031203500409E5EC09F00350FB0B39
:10138800E5EC09F0A00E00D0E82EFDD71200046E9F
:10139800010E446E0450F00BBBEC09F00438F00B5E
:1013A800F00BBBEC09F01200046E000E446E045002
:1013B800F00BBBEC09F00438F00BF00BBBEC09F0B8
:1013C8001200026E2BEC0AF04550F2EC09F00250C4
:1013D8003610F2EC09F021EC0AF01200016E01C09F
:1013E8006FFFA4AEFAEF09F0FCEF09F0F5EF09F092
:1013F800A49E6B501200938493820F013995399300
:10140800800E6D6E280E6C6E9F0E6E6E1200BF867B
:10141800DBCFE6EDFD87FFEF003F065B4F666D7D96
:05142800077F6F0008C2
:10142E000B6E09C005F00B50C7EC08F00A50CBEC60
:10143E0009F012006B84A4AE27EF0AF029EF0AF030
:10144E0022EF0AF0A49E12006B80A4AE31EF0AF0D8
:10145E0033EF0AF02CEF0AF0A49E1200010ED8EC26
:10146E0009F0D50EE82EFED700F01200016E01C075
:10147E00A9FFA694A69EA680A8501200899A8988D4
:10148E00898C12008998898A898C1200899C898A94
:0C149E00898812000150300F120012006B
:020000040020DA
:08000000FFFFFFFFFFFFFFFF00
:020000040030CA
:0E000000FF380F3CFFBF85FF0FC00FE00F4021
:00000001FF
